:100000000C9434000C9449000C9449000C94490061
:100010000C9449000C9449000C9449000C9449003C
:100020000C9449000C9449000C9449000C9449002C
:100030000C9449000C9449000C9449000C9449001C
:100040000C9449000C9449000C9449000C9449000C
:100050000C9449000C9449000C9449000C944900FC
:100060000C9449000C94490011241FBECFEFD8E036
:10007000DEBFCDBF12E0A0E0B1E0E2E2FDE102C0F0
:1000800005900D92AE3EB107D9F70E9499000C94ED
:100090008F0E0C9400009093C5008093C400E1EC97
:1000A000F0E080818860808380818061808386E049
:1000B0008093C2000895982F8091C00085FFFCCFE7
:1000C0009093C60008958091C00087FFFCCF809177
:1000D000C600089580E480937C0087E880937A00CE
:1000E000089590917C008F70907F892B80937C0085
:1000F00080917A00806480937A0080917A0086FDF6
:10010000FCCF2091780030917900C901089587B122
:10011000877C87B988B1886388B9089586B180954E
:10012000887308958AB1806C8AB984B18E6084B96D
:1001300008952F923F924F925F926F927F928F928B
:100140009F92AF92BF92CF92DF92EF92FF920F9366
:10015000DF93CF93CDB7DEB7C457D0400FB6F89436
:10016000DEBF0FBECDBF8CE00E949F0580E4809370
:100170007C0087E880937A000E9497058AB1806CA2
:100180008AB984B18E6084B987B1877C87B988B118
:10019000886388B9AA961FAEAA97A9961FAEA99799
:1001A000A8961FAEA897A7961FAEA797A6961FAEB4
:1001B000A69722E330E0E5963FAF2EAFE597E1E06A
:1001C000EE2EF12CE3963FAF2EAFE39774E6272E89
:1001D000312C80E0AA24BB2400E08824E1961FAEE5
:1001E000E197E0961FAEE097AF961FAEAF97AE9641
:1001F0001FAE1EAEAE9744245524CC24DD24992492
:10020000AC961FAEAC97AB961FAEAB9769E4662E6B
:10021000712C6C0E7D1E36B130953873A5963FAFAC
:10022000A597813009F0C3C10894A11CB11C81E1DC
:10023000A816B10438F0A0961FAEA097AA24BB243C
:1002400000E004C091E0A0969FAFA0978394A3E044
:100250008A222DB73EB7285030400FB6F8943EBFE3
:100260000FBE2DBFEDB7FEB7319623E130E02C0F66
:100270003D1FADB7BEB712963C932E93119782E106
:1002800090E093838283A0E0B1E0B583A483E596F8
:100290002EAD3FADE597378326830E94E10BEDB786
:1002A000FEB7319625E230E02C0F3D1FADB7BEB74B
:1002B00012963C932E93119782E190E09383828370
:1002C000AEE0B1E0B583A483E3962EAD3FADE397F6
:1002D000378326830E94E10BEDB7FEB7319627E303
:1002E00030E02C0F3D1FADB7BEB712963C932E9356
:1002F000119782E190E093838283ADE1B1E0B58311
:10030000A483378226820E94E10B2DB73EB7285F77
:100310003F4F0FB6F8943EBF0FBE2DBF9920C1F4DA
:100320008DB79EB708970FB6F8949EBF0FBE8DBFCE
:10033000EDB7FEB73196ADB7BEB712967C926E920E
:10034000119784E190E0938382832AE231E031C007
:1003500091E09916B1F4ADB7BEB718970FB6F894FF
:10036000BEBF0FBEADBFEDB7FEB7319612967C9201
:100370006E92119784E190E0938382832CE331E0C5
:1003800018C092E0991619F5ADB7BEB718970FB619
:10039000F894BEBF0FBEADBFEDB7FEB73196129653
:1003A0007C926E92119784E190E0938382832CE497
:1003B00031E035832483F782E6820E94E10B8DB71A
:1003C0009EB708960FB6F8949EBF0FBE8DBF002350
:1003D00059F491E0981540F480E00E94DD058CE529
:1003E00091E00E94E40516C080E00E94DD05CE0188
:1003F00085960E94E40580E791E00E94E4050130C3
:1004000049F4A1E0A81530F480E40E94DD058CE5F4
:1004100091E009C080E40E94DD05CE01C7960E94EC
:10042000E40584E791E00E94E40584E10E94DD0593
:10043000C3010E94E40584E791E00E94E4050230D4
:1004400059F4B1E0B81540F484E10E94DD058CE573
:1004500091E00E94E40515C084E10E94DD05C3011E
:100460000E94E40584E791E00E94E405033049F42A
:1004700021E0281530F484E50E94DD058CE591E04B
:1004800009C084E50E94DD05CE0143960E94E40583
:1004900087E791E00E94E405A5968FADA59785FFBB
:1004A00049C0002351F4E396AEADBFADE39711967A
:1004B000E396BFAFAEAFE39731C0013029F42AE035
:1004C00030E0220E331E2AC00230E1F40894E11C11
:1004D000F11C3CE3E316F10440F0992031F451E0C3
:1004E000E52EF12C9924939419C098E1E916F104B2
:1004F000A8F0A1E09A1691F441E0E42EF12C32E04C
:10050000932E0CC0033051F4E5962EAD3FADE59728
:100510002F5F3F4FE5963FAF2EAFE59728EE33E0D4
:10052000E8EBF0E03197F1F721503040C9F7AA2409
:10053000BB24882484FF30C0002351F4E396AEAD81
:10054000BFADE3971197E396BFAFAEAFE39718C087
:10055000013029F426EF3FEF220E331E11C0023086
:1005600021F40894E108F1080BC0033049F4E59642
:10057000AEADBFADE5971197E596BFAFAEAFE597CE
:1005800028EE33E0E8EBF0E03197F1F7215030400E
:10059000C9F7AA24BB24882483FF91C20F5F03708C
:1005A000B1E0A096BFAFA097AA24BB2488C282E086
:1005B0000E947100A4969FAF8EAFA49780E00E9426
:1005C0007100A0E0B0E0BC01CD010E94950920E0DF
:1005D00030E040EA50E40E949B0720E030E040E831
:1005E0005AE30E949B0720E030E040E05FE30E9476
:1005F0003D0720E030E048EC52E40E949B0720E0F9
:1006000030E040E151E40E949B0720E030E040EA06
:1006100050E40E94950820E030E040E052E40E945F
:100620006E070E9441096F967FAF6EAF6F9781E0B2
:100630000E947100A2969FAF8EAFA297AC962FAD8D
:10064000AC97213019F02CE731E002C020E831E00E
:100650008DB79EB70A970FB6F8949EBF0FBE8DBF99
:10066000EDB7FEB7319681E090E08C0F9D1FADB7DE
:10067000BEB712969C938E93119782E190E093837C
:100680008283A3E8B1E0B583A483A4968EAD9FAD29
:10069000A49797838683318720870E94E10BADB7AB
:1006A000BEB71A960FB6F894BEBF0FBEADBFAA96DE
:1006B000BFADAA97B13019F02CE731E002C020E8B5
:1006C00031E08DB79EB70A970FB6F8949EBF0FBE64
:1006D0008DBFEDB7FEB7319685E290E08C0F9D1F80
:1006E000ADB7BEB712969C938E93119782E190E0BE
:1006F00093838283A0E9B1E0B583A4836F968EAD26
:100700009FAD6F9797838683318720870E94E10B87
:10071000ADB7BEB71A960FB6F894BEBF0FBEADBF49
:10072000A996BFADA997B13019F02CE731E002C00E
:1007300020E831E08DB79EB70A970FB6F8949EBFB8
:100740000FBE8DBFEDB7FEB7319687E390E08C0FFB
:100750009D1FADB7BEB712969C938E93119782E101
:1007600090E093838283AEE9B1E0B583A483A2963F
:100770008EAD9FADA29797838683318720870E9495
:10078000E10BADB7BEB71A960FB6F894BEBF0FBE59
:10079000ADBFAB96BFADAB97B13019F02CE731E0F0
:1007A00002C020E831E09920C1F48DB79EB70A97C6
:1007B0000FB6F8949EBF0FBE8DBFEDB7FEB7319652
:1007C000ADB7BEB712967C926E92119784E190E01D
:1007D000938382838AEA91E035C0B1E09B16C1F42D
:1007E0008DB79EB70A970FB6F8949EBF0FBE8DBF08
:1007F000EDB7FEB73196ADB7BEB712967C926E924A
:10080000119784E190E0938382838BEB91E01AC08F
:10081000B2E09B1639F58DB79EB70A970FB6F894DC
:100820009EBF0FBE8DBFEDB7FEB73196ADB7BEB759
:1008300012967C926E92119784E190E0938382836A
:100840008AEC91E095838483F782E6823187208762
:100850000E94E10BADB7BEB71A960FB6F894BEBFB3
:100860000FBEADBF80E00E94DD05CE0185960E94DF
:10087000E40587E791E00E94E40580E40E94DD053D
:10088000CE01C7960E94E40589ED91E00E94E4053F
:1008900084E10E94DD05C3010E94E40587E791E041
:1008A0000E94E40584E50E94DD05CE0101960E94C8
:1008B000E4058FED91E00E94E405A596BFADA597F4
:1008C0008B2F90E023E0969587952A95E1F7282FC6
:1008D0002170A0962FAFA097E5968EAD9FADE597BE
:1008E000A496AEADBFADA497A817B907D0F4AF9644
:1008F000BFADAF97BF5FAF96BFAFAF97BB3048F10B
:10090000AC962FADAC97222321F5299AA8961FAE5D
:10091000A897AF961FAEAF9731E0AC963FAFAC97BC
:1009200018C0AC968FADAC97813099F4A8969FAD66
:10093000A8979F5FA8969FAFA897953150F02998E8
:10094000A8961FAEA897AF961FAEAF97AC961FAEF6
:10095000AC97A296AEADBFADA297A215B305A0F419
:10096000E096BFADE097BF5FE096BFAFE097BB30CA
:1009700018F1A9962FADA9972223F1F45E9A31E0E0
:10098000A9963FAFA99712C0A9968FADA9978130BC
:1009900099F4A7969FADA7979F5FA7969FAFA7973C
:1009A000953150F05E98A9961FAEA997A7961FAEF5
:1009B000A797E0961FAEE097E396AEADBFADE39785
:1009C0006F962EAD3FAD6F972A173B07A0F4E196C7
:1009D0003FADE1973F5FE1963FAFE1973B3018F1C4
:1009E000AA968FADAA978823F1F42A9A91E0AA9645
:1009F0009FAFAA9712C0AA96AFADAA97A13099F45B
:100A0000A696BFADA697BF5FA696BFAFA697B53116
:100A100050F02A98AA961FAEAA97A6961FAEA69740
:100A2000E1961FAEE197AE962EAD3FADAE972F5F2C
:100A30003F4FAE963FAF2EAFAE97283C310518F032
:100A40000894411C511C992061F44E145F0438F144
:100A50005F9A0894C11CD11C31E0AB963FAFAB97B5
:100A60001EC081E0981619F48CE390E005C022E0E6
:100A70009216A9F480EA95E0DC01EA9EC001EB9EA3
:100A8000900DFA9E900D11244816590640F05F9A79
:100A90000894C11CD11CB1E0AB96BFAFAB972FE15E
:100AA000C216D10460F05F98AE961FAE1EAEAE9730
:100AB00044245524CC24DD24AB961FAEAB9780EDA7
:100AC00097E0E8EBF0E03197F1F70197D1F7A096C6
:100AD0008FADA097A0CB9BB1937C9BB92BB190E03D
:100AE0008F709070880F991F880F991F282B2BB932
:100AF000599A82E0982F9A95F1F759988A95F1F7CB
:100B000008951F93182F82958F700E946B05812F77
:100B10000E946B0582E68A95F1F71F910895589817
:100B20000E9481050895589A0E948105089581E0E8
:100B30000E948F0586E69EE00197F1F708951F93C6
:100B4000182F8AB18F638AB984EF91E028EB30E0E7
:100B5000F9013197F1F70197D9F7589883E00E948E
:100B60006B0580E094E20197F1F783E00E946B054A
:100B70008AEC90E00197F1F783E00E946B0582E632
:100B80008A95F1F782E00E946B0588E20E948F054A
:100B900088E00E948F050E94970586E00E948F05DD
:100BA000812F0E948F051F91089582E00E948F057A
:100BB00086E69EE00197F1F7089580680E948F0510
:100BC00008950E9493050895CF93DF93EC0103C02D
:100BD00021960E94930588818823D1F7DF91CF91D8
:100BE0000895A0E0B0E0E7EFF5E00C94AA0BDC017B
:100BF0002B01FA019C91923008F439C1EB018881F4
:100C0000823008F433C1943069F4843009F02FC184
:100C100011969C9111978981981709F428C1A6EE25
:100C2000B1E025C1843009F421C18230A9F49230A9
:100C300009F01DC19A01AD0188E0EA010990AE01F9
:100C4000E90109929E018150C1F7E2018981119663
:100C50009C918923818308C1923009F407C11296BF
:100C60002D903C901397EB018A819B811496AD9057
:100C7000BD90CD90DC901797EC80FD800E811F8198
:100C80009101281B390BB90137FF04C0662777276C
:100C9000621B730B603271050CF061C012161306F3
:100CA0006CF537014801062E04C09694879477941A
:100CB00067940A94D2F721E030E040E050E004C0AD
:100CC000220F331F441F551F6A95D2F72150304021
:100CD000404050402E213F21402351232115310512
:100CE0004105510521F021E030E040E050E079017C
:100CF0008A01E628F728082919293CC0232BD1F1BD
:100D0000260E371E35014601062E04C096948794A0
:100D1000779467940A94D2F721E030E040E050E005
:100D200004C0220F331F441F551F6A95D2F721506C
:100D30003040404050402A213B214C215D2121156B
:100D400031054105510521F021E030E040E050E05F
:100D500059016A01A628B728C828D9280BC08215CE
:100D600093052CF01C01AA24BB24650103C0EE24CA
:100D7000FF24870111969C91D20111968C919817AE
:100D800009F445C0992339F0A80197012A193B09B4
:100D90004C095D0906C0A60195012E193F09400BBB
:100DA000510B57FD08C01182338222822483358380
:100DB000468357831DC081E0818333822282882746
:100DC0009927DC01821B930BA40BB50B84839583BD
:100DD000A683B7830DC0220F331F441F551F2483E2
:100DE00035834683578382819381019793838283DE
:100DF0002481358146815781DA01C9010197A10912
:100E0000B1098F5F9F4FAF4FBF4328F30BC0918352
:100E100033822282EA0CFB1C0C1D1D1DE482F5822C
:100E20000683178383E0808324813581468157813F
:100E300057FF1AC0C901AA2797FDA095BA2F817044
:100E40009070A070B0705695479537952795822B76
:100E5000932BA42BB52B84839583A683B7838281A0
:100E60009381019693838283DF0101C0D201CD017A
:100E7000CDB7DEB7E2E10C94C60BA0E2B0E0E3E44C
:100E8000F7E00C94B60B69837A838B839C832D8364
:100E90003E834F835887E9E0EE2EF12CEC0EFD1EC9
:100EA000CE010196B7010E94320B8E010F5E1F4FDB
:100EB000CE010596B8010E94320B8A8991E08927FC
:100EC0008A8BC701B801AE01475E5F4F0E94F105F2
:100ED0000E945D0AA096E6E00C94D20BA0E2B0E07E
:100EE000E4E7F7E00C94B60B69837A838B839C83E9
:100EF0002D833E834F835887F9E0EF2EF12CEC0EC3
:100F0000FD1ECE010196B7010E94320B8E010F5ECD
:100F10001F4FCE010596B8010E94320BC701B801E0
:100F2000AE01475E5F4F0E94F1050E945D0AA096E8
:100F3000E6E00C94D20BA0E2B0E0E1EAF7E00C941A
:100F4000AA0B69837A838B839C832D833E834F8393
:100F50005887CE010196BE01675F7F4F0E94320B1A
:100F6000CE010596BE016F5E7F4F0E94320B9985C0
:100F7000923088F089898230C8F0943019F4823038
:100F800051F404C0843029F4923081F486EE91E06B
:100F9000C6C0923049F420E09A858A89981321E0EE
:100FA0002A87CE010996BBC0823049F420E09A8599
:100FB0008A89981321E02A8BCE014196B0C02D84F6
:100FC0003E844F8458886D887E888F88988CEE2464
:100FD000FF248701AA24BB24650140E050E060E0C3
:100FE00070E0E0E0F0E0C10181709070892BE9F0E1
:100FF000E60CF71C081D191D9A01AB012A0D3B1DBB
:101000004C1D5D1D80E090E0A0E0B0E0E614F70428
:101010000805190520F481E090E0A0E0B0E0BA01F5
:10102000A901480F591F6A1F7B1FAA0CBB1CCC1CAF
:10103000DD1C97FE08C081E090E0A0E0B0E0A82AA7
:10104000B92ACA2ADB2A3196E032F10549F0660C4A
:10105000771C881C991C5694479437942794C3CFC7
:10106000FA85EA892B893C898B859C85280F391F55
:101070002E5F3F4F17C0CA0181709070892B61F0BD
:1010800016950795F794E79480E090E0A0E0B0E82B
:10109000E82AF92A0A2B1B2B7695679557954795D1
:1010A0002F5F3F4F77FDE7CF0CC0440F551F661FE2
:1010B000771F17FD4160EE0CFF1C001F111F215010
:1010C0003040403090E0590790E0690790E479079C
:1010D00060F32B8F3C8FDB01CA018F779070A0707B
:1010E000B07080349105A105B10561F447FD0AC0D7
:1010F000E114F1040105110529F0405C5F4F6F4FC9
:101100007F4F40781A8EFE1711F081E08A8F4D8F45
:101110005E8F6F8F78A383E0898FCE0149960E94FE
:101120005D0AA096E2E10C94C60BA8E1B0E0EBE901
:10113000F8E00C94B20B69837A838B839C832D83B4
:101140003E834F835887B9E0EB2EF12CEC0EFD1E49
:10115000CE010196B7010E94320B8E010F5E1F4F28
:10116000CE010596B8010E94320B2985223008F481
:101170007EC03989323010F4B8017CC08A859A89E2
:1011800089278A87243011F0223031F4231709F09F
:101190006EC066EE71E06EC0343039F41D861E8676
:1011A0001F86188A1C861B8604C0323021F484E016
:1011B0008987B7015FC02B853C858B899C89281B5B
:1011C000390B3C872B87ED84FE840F851889AD8809
:1011D000BE88CF88D88CEA14FB040C051D0540F4AA
:1011E000EE0CFF1C001F111F215030403C872B8745
:1011F00020E030E040E050E080E090E0A0E0B0E4AB
:1012000060E070E0EA14FB040C051D0540F0282B9B
:10121000392B4A2B5B2BEA18FB080C091D09B695E4
:10122000A79597958795EE0CFF1C001F111F6F5F08
:101230007F4F6F31710531F7DA01C9018F779070F7
:10124000A070B07080349105A105B10561F427FD4F
:101250000AC0E114F1040105110529F0205C3F4F9B
:101260004F4F5F4F20782D873E874F87588BBE01A9
:10127000675F7F4FCB010E945D0A6896EAE00C949D
:10128000CE0BACE0B0E0E7E4F9E00C94BA0B698374
:101290007A838B839C83CE010196BE016B5F7F4F67
:1012A0000E94320B8D81823061F1823050F18430A6
:1012B00021F48E81882351F12EC02F81388537FD8E
:1012C00020C06E812F3131051CF06623F9F023C058
:1012D0008EE190E0821B930B29853A854B855C85D6
:1012E00004C056954795379527958A95D2F766237A
:1012F000B1F050954095309521953F4F4F4F5F4F3E
:101300000EC020E030E040E050E009C02FEF3FEF9A
:101310004FEF5FE704C020E030E040E050E8B90163
:10132000CA012C96E2E00C94D60BA8E0B0E0EBE901
:10133000F9E00C94B20B7B018C01611571058105FC
:10134000910519F482E0898360C083E089838EE18E
:10135000C82ED12CDC82CB82ED82FE820F831887CF
:10136000C801B7010E940E0AFC013197F7FF3BC08C
:10137000222733272E1B3F0B57016801022E04C082
:10138000D694C794B794A7940A94D2F740E050E05B
:1013900060E070E081E090E0A0E0B0E004C0880F81
:1013A000991FAA1FBB1F2A95D2F70197A109B1095E
:1013B0008E219F21A023B1230097A105B10521F023
:1013C00041E050E060E070E04A295B296C297D290A
:1013D0004D835E836F8378878EE190E08E1B9F0B39
:1013E0009C838B8312C0309781F00E2E04C0EE0CCC
:1013F000FF1C001F111F0A94D2F7ED82FE820F839B
:101400001887CE1ADF0ADC82CB821A82CE010196BF
:101410000E945D0A2896EAE00C94CE0BEF92FF92B0
:101420000F931F937B018C0180E0E81680E0F806A3
:1014300081E0080780E0180788F48FEFE816F104D0
:101440000105110531F028F088E090E0A0E0B0E05F
:1014500017C080E090E0A0E0B0E012C080E0E816A5
:1014600080E0F80680E0080781E0180728F088E1AE
:1014700090E0A0E0B0E004C080E190E0A0E0B0E047
:1014800020E230E040E050E0281B390B4A0B5B0BB8
:1014900004C016950795F794E7948A95D2F7F7015B
:1014A000E251FE4F8081281B310941095109C901D0
:1014B0001F910F91FF90EF900895DF92EF92FF92AE
:1014C0000F931F93FC01E480F58006811781D18082
:1014D0008081823048F480E090E0A0E1B0E0E82A2A
:1014E000F92A0A2B1B2BA5C0843009F49FC0823037
:1014F00021F4EE24FF24870105C0E114F104010565
:10150000110519F4E0E0F0E096C0628173819FEF6D
:10151000623879070CF05BC022E83FEF261B370BDF
:101520002A3131052CF020E030E040E050E02AC0C4
:10153000B801A701022E04C0769567955795479587
:101540000A94D2F781E090E0A0E0B0E004C0880FF8
:10155000991FAA1FBB1F2A95D2F70197A109B109AC
:101560008E219F21A023B1230097A105B10521F071
:1015700081E090E0A0E0B0E09A01AB01282B392B8C
:101580004A2B5B2BDA01C9018F779070A070B07085
:1015900080349105A105B10539F427FF09C0205C0D
:1015A0003F4F4F4F5F4F04C0215C3F4F4F4F5F4F46
:1015B000E0E0F0E02030A0E03A07A0E04A07A0E435
:1015C0005A0710F0E1E0F0E079018A0127C06038A5
:1015D000710564F5FB01E158FF4FD801C7018F7712
:1015E0009070A070B07080349105A105B10539F4F8
:1015F000E7FE0DC080E490E0A0E0B0E004C08FE31F
:1016000090E0A0E0B0E0E80EF91E0A1F1B1F17FFD4
:1016100005C016950795F794E794319687E01695DF
:101620000795F794E7948A95D1F705C0EE24FF2437
:101630008701EFEFF0E06E2F679566276795902F93
:101640009F77D794DD24D7948E2F8695492F462BEC
:10165000582F5D29B701CA011F910F91FF90EF909C
:10166000DF900895FC01DB01408151812281622FCE
:101670006F7770E0221F2227221F9381892F880F06
:10168000822B282F30E0991F9927991F11969C9340
:10169000119721153105A9F5411551056105710510
:1016A00011F482E037C082E89FEF13969C938E93EB
:1016B00012979A01AB0167E0220F331F441F551F99
:1016C0006A95D1F783E08C930DC0220F331F441F1E
:1016D000551F12968D919C911397019713969C9389
:1016E0008E931297203080E0380780E0480780E42E
:1016F000580758F314962D933D934D935C93179789
:1017000008952F3F310579F44115510561057105A3
:1017100019F484E08C93089564FF03C081E08C93F6
:1017200012C01C9210C02F57304013963C932E933A
:10173000129783E08C9387E0440F551F661F771F35
:101740008A95D1F7706414964D935D936D937C9355
:10175000179708952F923F924F925F926F927F92C8
:101760008F929F92AF92BF92CF92DF92EF92FF92B1
:101770000F931F93CF93DF93CDB7DEB7CA1BDB0B5D
:101780000FB6F894DEBF0FBECDBF09942A88398802
:1017900048885F846E847D848C849B84AA84B98409
:1017A000C884DF80EE80FD800C811B81AA81B98115
:1017B000CE0FD11D0FB6F894DEBF0FBECDBFED0129
:1017C0000895AEE0B0E0E7EEFBE00C94B80B0D89B5
:1017D0001E898F89988D97FF02C080E090E801975D
:1017E0009E838D831A83098386E08C839E01255E08
:1017F0003F4FCE010196698D7A8DA9010E94120C8E
:101800004D815E8157FD0AC02F81388542175307ED
:101810000CF49A01020F131FF80110822E96E4E0D7
:101820000C94D40BABE0B0E0E8E1FCE00C94AA0B24
:101830003C012B015A01FC0117821682838181FD34
:1018400003C06FEF7FEFC6C19AE0892E1E01089496
:10185000211C311CF3012381F20123FD859123FF1B
:1018600081912F01882309F4B2C1853239F423FD17
:10187000859123FF81912F01853229F490E0B301F6
:101880000E94050EE7CF982FFF24EE249924FFE154
:10189000FF15D0F09B3269F09C3228F4903259F059
:1018A000933291F40EC09D3249F0903369F441E0D7
:1018B00024C052E0F52A84E0F82A28C098E0F92AEA
:1018C00025C0E0E1FE2A22C0F7FC29C0892F805301
:1018D0008A3070F4F6FE05C0989C902C1124980E66
:1018E00015C0E89CE02C1124E80EF0E2FF2A0EC09F
:1018F0009E3229F4F6FC6BC140E4F42A07C09C3602
:1019000019F450E8F52A02C0983649F4F20123FD93
:10191000959123FF91912F01992309F0B8CF892F39
:101920008554833018F08052833038F444E050E01E
:10193000A40EB51E5FE359830FC0933631F0933781
:1019400079F0933509F056C020C0F5018081898374
:1019500042E050E0A40EB51E610101E010E012C0AB
:10196000F501C080D180F6FC03C06FEF7FEF02C0AD
:10197000692D70E042E050E0A40EB51EC6010E9441
:10198000FA0D8C015FE7F52214C0F501C080D1800B
:10199000F6FC03C06FEF7FEF02C0692D70E042E0FC
:1019A00050E0A40EB51EC6010E94EF0D8C0150E858
:1019B000F52AF3FE07C01AC080E290E0B3010E944E
:1019C000050EEA948E2D90E008171907A8F30EC0B3
:1019D000F601F7FC8591F7FE81916F0190E0B3016C
:1019E0000E94050EE110EA94015010400115110506
:1019F00079F7EAC0943611F0993669F5F7FE08C018
:101A0000F501208131814281538184E090E00AC058
:101A1000F501808191819C01442737FD4095542F29
:101A200082E090E0A80EB91E9FE6F92257FF09C098
:101A300050954095309521953F4F4F4F5F4FE0E8CF
:101A4000FE2ACA01B901A1012AE030E00E94310E4C
:101A5000D82ED21840C0953729F41F2D1F7E2AE0BA
:101A600030E01DC01F2D197F9F3661F0903720F4A4
:101A7000983509F0ACC00FC0903739F0983709F0AD
:101A8000A6C004C028E030E00AC0106114FD146054
:101A900020E130E004C014FD166020E132E017FFC1
:101AA00008C0F501608171818281938144E050E03A
:101AB00008C0F50180819181BC0180E090E042E0A6
:101AC00050E0A40EB51EA1010E94310ED82ED218EE
:101AD0008FE7F82EF122F6FE0BC05EEFF522D91447
:101AE00038F4F4FE07C0F2FC05C08FEEF82202C005
:101AF0001D2D01C0192DF4FE0DC0FE01ED0DF11DCF
:101B00008081803319F499EEF92208C01F5FF2FE3C
:101B100005C003C08F2D867809F01F5F0F2DF3FCE1
:101B200014C0F0FE0FC01E1510F09D2C0BC09D2C94
:101B30009E0C911A1E2D06C080E290E0B3010E9417
:101B4000050E1F5F1E15C0F304C01E1510F4E11A28
:101B500001C0EE2404FF0FC080E390E0B3010E94B7
:101B6000050E02FF1DC001FD03C088E790E00EC016
:101B700088E590E00BC0802F867891F001FF02C0CD
:101B80008BE201C080E2F7FC8DE290E0B3010E949D
:101B9000050E06C080E390E0B3010E94050E9A9402
:101BA000D914C0F3DA94F101ED0DF11D808190E0BC
:101BB000B3010E94050EDD20A9F706C080E290E087
:101BC000B3010E94050EEA94EE20C1F743CEF30163
:101BD00066817781CB012B96E2E10C94C60BFC0168
:101BE0000590615070400110D8F7809590958E0F48
:101BF0009F1F0895FC016150704001900110D8F7BB
:101C0000809590958E0F9F1F08950F931F93CF93EC
:101C1000DF938C01EB018B8181FF1BC082FF0DC024
:101C20002E813F818C819D812817390764F4E881DA
:101C3000F9810193F983E88306C0E885F985802F4F
:101C40000995892B31F48E819F8101969F838E8324
:101C500002C00FEF1FEFC801DF91CF911F910F91CD
:101C60000895FA01AA27283051F1203181F1E89432
:101C70006F936E7F6E5F7F4F8F4F9F4FAF4FB1E07F
:101C80003ED0B4E03CD0670F781F891F9A1FA11D7A
:101C9000680F791F8A1F911DA11D6A0F711D811D7B
:101CA000911DA11D20D009F468943F912AE0269F40
:101CB00011243019305D3193DEF6CF010895462F9F
:101CC0004770405D4193B3E00FD0C9F7F6CF462F80
:101CD0004F70405D4A3318F0495D31FD40524193E9
:101CE00002D0A9F7EACFB4E0A695979587957795A6
:101CF0006795BA95C9F700976105710508959B012D
:101D0000AC010A2E06945795479537952795BA95B5
:101D1000C9F7620F731F841F951FA01D0895F894C3
:021D2000FFCFF3
:101D2200536574204C696768743A202564005365D2
:101D3200742054656D703A202575204600536574F1
:101D4200204D6F69733A20257500536574204E75D6
:101D520074723A20312F25756D696E0053657420B7
:101D62004E7574723A20312F2575680053657420C0
:101D72004E7574723A20312F257564002020202080
:101D82002020202020202020202020202020200071
:101D92002020200020200020202020004F66660006
:101DA2004F6E004C696768743A20257520257300D0
:101DB20054656D703A2025752046202573004D6FBD
:101DC20069733A202575202573004E7574723A2086
:101DD200312F25756D696E202573004E7574723A28
:101DE20020312F257568202573004E7574723A20B4
:101DF200312F25756420257300202020202000200B
:101E0200202020202000000000000000000000012F
:101E12000202030303030404040404040404050586
:101E2200050505050505050505050505050506065E
:101E32000606060606060606060606060606060640
:101E4200060606060606060606060606060607072E
:101E52000707070707070707070707070707070710
:101E62000707070707070707070707070707070700
:101E720007070707070707070707070707070707F0
:101E820007070707070707070707070707070808DE
:101E920008080808080808080808080808080808C0
:101EA20008080808080808080808080808080808B0
:101EB20008080808080808080808080808080808A0
:101EC2000808080808080808080808080808080890
:101ED2000808080808080808080808080808080880
:101EE2000808080808080808080808080808080870
:101EF2000808080808080808080808080808080860
:0E1F0200080808080808080808080808080861
:00000001FF
